{
  "contractName": "VendingMachine",
  "abi": [
    {
      "inputs": [],
      "stateMutability": "nonpayable",
      "type": "constructor"
    },
    {
      "inputs": [
        {
          "internalType": "address",
          "name": "",
          "type": "address"
        }
      ],
      "name": "donutBalances",
      "outputs": [
        {
          "internalType": "uint256",
          "name": "",
          "type": "uint256"
        }
      ],
      "stateMutability": "view",
      "type": "function",
      "constant": true
    },
    {
      "inputs": [],
      "name": "owner",
      "outputs": [
        {
          "internalType": "address",
          "name": "",
          "type": "address"
        }
      ],
      "stateMutability": "view",
      "type": "function",
      "constant": true
    },
    {
      "inputs": [],
      "name": "getVendingMachineBalance",
      "outputs": [
        {
          "internalType": "uint256",
          "name": "",
          "type": "uint256"
        }
      ],
      "stateMutability": "view",
      "type": "function",
      "constant": true
    },
    {
      "inputs": [
        {
          "internalType": "uint256",
          "name": "amount",
          "type": "uint256"
        }
      ],
      "name": "restock",
      "outputs": [],
      "stateMutability": "nonpayable",
      "type": "function"
    },
    {
      "inputs": [
        {
          "internalType": "uint256",
          "name": "amount",
          "type": "uint256"
        }
      ],
      "name": "purchase",
      "outputs": [],
      "stateMutability": "payable",
      "type": "function",
      "payable": true
    }
  ],
  "bytecode": "0x608060405234801561001057600080fd5b50336000806101000a81548173ffffffffffffffffffffffffffffffffffffffff021916908373ffffffffffffffffffffffffffffffffffffffff1602179055506064600160003073ffffffffffffffffffffffffffffffffffffffff1673ffffffffffffffffffffffffffffffffffffffff168152602001908152602001600020819055506107e9806100a56000396000f3fe60806040526004361061004a5760003560e01c80638da5cb5b1461004f5780639a020d8a1461007a578063c21a702a146100b7578063e7644d34146100e0578063efef39a11461010b575b600080fd5b34801561005b57600080fd5b50610064610127565b6040516100719190610459565b60405180910390f35b34801561008657600080fd5b506100a1600480360381019061009c91906104a5565b61014b565b6040516100ae91906104eb565b60405180910390f35b3480156100c357600080fd5b506100de60048036038101906100d99190610532565b610163565b005b3480156100ec57600080fd5b506100f561024a565b60405161010291906104eb565b60405180910390f35b61012560048036038101906101209190610532565b610291565b005b60008054906101000a900473ffffffffffffffffffffffffffffffffffffffff1681565b60016020528060005260406000206000915090505481565b60008054906101000a900473ffffffffffffffffffffffffffffffffffffffff1673ffffffffffffffffffffffffffffffffffffffff163373ffffffffffffffffffffffffffffffffffffffff16146101f1576040517f08c379a00000000000000000000000000000000000000000000000000000000081526004016101e8906105e2565b60405180910390fd5b80600160003073ffffffffffffffffffffffffffffffffffffffff1673ffffffffffffffffffffffffffffffffffffffff16815260200190815260200160002060008282546102409190610631565b9250508190555050565b6000600160003073ffffffffffffffffffffffffffffffffffffffff1673ffffffffffffffffffffffffffffffffffffffff16815260200190815260200160002054905090565b671bc16d674ec80000816102a59190610665565b3410156102e7576040517f08c379a00000000000000000000000000000000000000000000000000000000081526004016102de906106f3565b60405180910390fd5b80600160003073ffffffffffffffffffffffffffffffffffffffff1673ffffffffffffffffffffffffffffffffffffffff168152602001908152602001600020541015610369576040517f08c379a00000000000000000000000000000000000000000000000000000000081526004016103609061075f565b60405180910390fd5b80600160003373ffffffffffffffffffffffffffffffffffffffff1673ffffffffffffffffffffffffffffffffffffffff16815260200190815260200160002060008282546103b89190610631565b9250508190555080600160003073ffffffffffffffffffffffffffffffffffffffff1673ffffffffffffffffffffffffffffffffffffffff168152602001908152602001600020600082825461040e919061077f565b9250508190555050565b600073ffffffffffffffffffffffffffffffffffffffff82169050919050565b600061044382610418565b9050919050565b61045381610438565b82525050565b600060208201905061046e600083018461044a565b92915050565b600080fd5b61048281610438565b811461048d57600080fd5b50565b60008135905061049f81610479565b92915050565b6000602082840312156104bb576104ba610474565b5b60006104c984828501610490565b91505092915050565b6000819050919050565b6104e5816104d2565b82525050565b600060208201905061050060008301846104dc565b92915050565b61050f816104d2565b811461051a57600080fd5b50565b60008135905061052c81610506565b92915050565b60006020828403121561054857610547610474565b5b60006105568482850161051d565b91505092915050565b600082825260208201905092915050565b7f4f6e6c7920746865206f776e65722063616e20726573746f636b20746865206d60008201527f616368696e650000000000000000000000000000000000000000000000000000602082015250565b60006105cc60268361055f565b91506105d782610570565b604082019050919050565b600060208201905081810360008301526105fb816105bf565b9050919050565b7f4e487b7100000000000000000000000000000000000000000000000000000000600052601160045260246000fd5b600061063c826104d2565b9150610647836104d2565b925082820190508082111561065f5761065e610602565b5b92915050565b6000610670826104d2565b915061067b836104d2565b9250828202610689816104d2565b915082820484148315176106a05761069f610602565b5b5092915050565b7f497420636f7374732032206574686572732070657220646f6e75747320000000600082015250565b60006106dd601d8361055f565b91506106e8826106a7565b602082019050919050565b6000602082019050818103600083015261070c816106d0565b9050919050565b7f4e6f7420656e6f75676820646f6e75747320696e2073746f636b000000000000600082015250565b6000610749601a8361055f565b915061075482610713565b602082019050919050565b600060208201905081810360008301526107788161073c565b9050919050565b600061078a826104d2565b9150610795836104d2565b92508282039050818111156107ad576107ac610602565b5b9291505056fea2646970667358221220ee0758a20cbf20110f03bd0fb85a40641db9b66f5e39c7a47e444247276a1f9864736f6c63430008130033",
  "immutableReferences": {},
  "source": "// SPDX-License-Identifier: MIT\n\npragma solidity  ^0.8.19;\n\ncontract VendingMachine {\n    address public owner;\n    mapping(address => uint) public donutBalances;\n\n    constructor()\n    {\n        owner = msg.sender;\n        donutBalances[address(this)] = 100;\n    }\n\n    function getVendingMachineBalance() public view  returns (uint)\n    {\n        return donutBalances[address(this)];\n    }\n    function restock (uint amount) public {\n        require(msg.sender == owner, \"Only the owner can restock the machine\");\n         donutBalances[address(this)] += amount;\n    }\n    function purchase (uint amount) public payable\n    {\n        require(msg.value >=  amount * 2 ether ,  \"It costs 2 ethers per donuts \");\n        require(donutBalances[address(this)] >= amount , \"Not enough donuts in stock\");\n        donutBalances[msg.sender] += amount;\n        donutBalances[address(this)] -= amount; \n    }\n}",
  "sourcePath": "/Users/mel-hadj/Desktop/VendingMachineDapp/VendingMachineWeb3/contracts/VendingMachine.sol",
  "compiler": {
    "name": "solc",
    "version": "0.8.19+commit.7dd6d404.Emscripten.clang"
  },
  "schemaVersion": "3.4.13",
  "updatedAt": "2023-03-15T00:18:15.263Z",
  "networkType": "ethereum",
  "devdoc": {
    "kind": "dev",
    "methods": {},
    "version": 1
  },
  "userdoc": {
    "kind": "user",
    "methods": {},
    "version": 1
  }
}